{
  "contractName": "LocalTokenCrowdsale",
  "abi": [
    {
      "constant": true,
      "inputs": [],
      "name": "rate",
      "outputs": [
        {
          "name": "",
          "type": "uint256"
        }
      ],
      "payable": false,
      "stateMutability": "view",
      "type": "function"
    },
    {
      "constant": true,
      "inputs": [],
      "name": "endTime",
      "outputs": [
        {
          "name": "",
          "type": "uint256"
        }
      ],
      "payable": false,
      "stateMutability": "view",
      "type": "function"
    },
    {
      "constant": true,
      "inputs": [],
      "name": "cap",
      "outputs": [
        {
          "name": "",
          "type": "uint256"
        }
      ],
      "payable": false,
      "stateMutability": "view",
      "type": "function"
    },
    {
      "constant": true,
      "inputs": [],
      "name": "tokensForCommFaucet",
      "outputs": [
        {
          "name": "",
          "type": "uint256"
        }
      ],
      "payable": false,
      "stateMutability": "view",
      "type": "function"
    },
    {
      "constant": true,
      "inputs": [],
      "name": "goal",
      "outputs": [
        {
          "name": "",
          "type": "uint256"
        }
      ],
      "payable": false,
      "stateMutability": "view",
      "type": "function"
    },
    {
      "constant": true,
      "inputs": [],
      "name": "weiRaised",
      "outputs": [
        {
          "name": "",
          "type": "uint256"
        }
      ],
      "payable": false,
      "stateMutability": "view",
      "type": "function"
    },
    {
      "constant": false,
      "inputs": [],
      "name": "finalize",
      "outputs": [],
      "payable": false,
      "stateMutability": "nonpayable",
      "type": "function"
    },
    {
      "constant": true,
      "inputs": [],
      "name": "wallet",
      "outputs": [
        {
          "name": "",
          "type": "address"
        }
      ],
      "payable": false,
      "stateMutability": "view",
      "type": "function"
    },
    {
      "constant": true,
      "inputs": [],
      "name": "totalTokensForSale",
      "outputs": [
        {
          "name": "",
          "type": "uint256"
        }
      ],
      "payable": false,
      "stateMutability": "view",
      "type": "function"
    },
    {
      "constant": true,
      "inputs": [],
      "name": "startTime",
      "outputs": [
        {
          "name": "",
          "type": "uint256"
        }
      ],
      "payable": false,
      "stateMutability": "view",
      "type": "function"
    },
    {
      "constant": true,
      "inputs": [],
      "name": "goalReached",
      "outputs": [
        {
          "name": "",
          "type": "bool"
        }
      ],
      "payable": false,
      "stateMutability": "view",
      "type": "function"
    },
    {
      "constant": true,
      "inputs": [],
      "name": "tokensForCommDev",
      "outputs": [
        {
          "name": "",
          "type": "uint256"
        }
      ],
      "payable": false,
      "stateMutability": "view",
      "type": "function"
    },
    {
      "constant": true,
      "inputs": [],
      "name": "tokensForAirdrop",
      "outputs": [
        {
          "name": "",
          "type": "uint256"
        }
      ],
      "payable": false,
      "stateMutability": "view",
      "type": "function"
    },
    {
      "constant": true,
      "inputs": [],
      "name": "isFinalized",
      "outputs": [
        {
          "name": "",
          "type": "bool"
        }
      ],
      "payable": false,
      "stateMutability": "view",
      "type": "function"
    },
    {
      "constant": true,
      "inputs": [],
      "name": "owner",
      "outputs": [
        {
          "name": "",
          "type": "address"
        }
      ],
      "payable": false,
      "stateMutability": "view",
      "type": "function"
    },
    {
      "constant": true,
      "inputs": [],
      "name": "totalTokensForSalePreICO",
      "outputs": [
        {
          "name": "",
          "type": "uint256"
        }
      ],
      "payable": false,
      "stateMutability": "view",
      "type": "function"
    },
    {
      "constant": true,
      "inputs": [],
      "name": "totalWeiRaisedDuringPreICO",
      "outputs": [
        {
          "name": "",
          "type": "uint256"
        }
      ],
      "payable": false,
      "stateMutability": "view",
      "type": "function"
    },
    {
      "constant": false,
      "inputs": [],
      "name": "claimRefund",
      "outputs": [],
      "payable": false,
      "stateMutability": "nonpayable",
      "type": "function"
    },
    {
      "constant": true,
      "inputs": [],
      "name": "stage",
      "outputs": [
        {
          "name": "",
          "type": "uint8"
        }
      ],
      "payable": false,
      "stateMutability": "view",
      "type": "function"
    },
    {
      "constant": true,
      "inputs": [],
      "name": "maxTokens",
      "outputs": [
        {
          "name": "",
          "type": "uint256"
        }
      ],
      "payable": false,
      "stateMutability": "view",
      "type": "function"
    },
    {
      "constant": false,
      "inputs": [
        {
          "name": "beneficiary",
          "type": "address"
        }
      ],
      "name": "buyTokens",
      "outputs": [],
      "payable": true,
      "stateMutability": "payable",
      "type": "function"
    },
    {
      "constant": true,
      "inputs": [],
      "name": "tokensForCommEng",
      "outputs": [
        {
          "name": "",
          "type": "uint256"
        }
      ],
      "payable": false,
      "stateMutability": "view",
      "type": "function"
    },
    {
      "constant": false,
      "inputs": [
        {
          "name": "newOwner",
          "type": "address"
        }
      ],
      "name": "transferOwnership",
      "outputs": [],
      "payable": false,
      "stateMutability": "nonpayable",
      "type": "function"
    },
    {
      "constant": true,
      "inputs": [],
      "name": "vault",
      "outputs": [
        {
          "name": "",
          "type": "address"
        }
      ],
      "payable": false,
      "stateMutability": "view",
      "type": "function"
    },
    {
      "constant": true,
      "inputs": [],
      "name": "token",
      "outputs": [
        {
          "name": "",
          "type": "address"
        }
      ],
      "payable": false,
      "stateMutability": "view",
      "type": "function"
    },
    {
      "constant": true,
      "inputs": [],
      "name": "tokensForTeam",
      "outputs": [
        {
          "name": "",
          "type": "uint256"
        }
      ],
      "payable": false,
      "stateMutability": "view",
      "type": "function"
    },
    {
      "inputs": [
        {
          "name": "_startTime",
          "type": "uint256"
        },
        {
          "name": "_endTime",
          "type": "uint256"
        },
        {
          "name": "_rate",
          "type": "uint256"
        },
        {
          "name": "_wallet",
          "type": "address"
        },
        {
          "name": "_goal",
          "type": "uint256"
        },
        {
          "name": "_cap",
          "type": "uint256"
        }
      ],
      "payable": false,
      "stateMutability": "nonpayable",
      "type": "constructor"
    },
    {
      "payable": true,
      "stateMutability": "payable",
      "type": "fallback"
    },
    {
      "anonymous": false,
      "inputs": [
        {
          "indexed": false,
          "name": "text",
          "type": "string"
        }
      ],
      "name": "EthTransferred",
      "type": "event"
    },
    {
      "anonymous": false,
      "inputs": [
        {
          "indexed": false,
          "name": "text",
          "type": "string"
        }
      ],
      "name": "EthRefunded",
      "type": "event"
    },
    {
      "anonymous": false,
      "inputs": [],
      "name": "Finalized",
      "type": "event"
    },
    {
      "anonymous": false,
      "inputs": [
        {
          "indexed": true,
          "name": "previousOwner",
          "type": "address"
        },
        {
          "indexed": true,
          "name": "newOwner",
          "type": "address"
        }
      ],
      "name": "OwnershipTransferred",
      "type": "event"
    },
    {
      "anonymous": false,
      "inputs": [
        {
          "indexed": true,
          "name": "purchaser",
          "type": "address"
        },
        {
          "indexed": true,
          "name": "beneficiary",
          "type": "address"
        },
        {
          "indexed": false,
          "name": "value",
          "type": "uint256"
        },
        {
          "indexed": false,
          "name": "amount",
          "type": "uint256"
        }
      ],
      "name": "TokenPurchase",
      "type": "event"
    },
    {
      "constant": false,
      "inputs": [
        {
          "name": "value",
          "type": "uint256"
        }
      ],
      "name": "setCrowdsaleStage",
      "outputs": [],
      "payable": false,
      "stateMutability": "nonpayable",
      "type": "function"
    },
    {
      "constant": false,
      "inputs": [
        {
          "name": "_teamFund",
          "type": "address"
        },
        {
          "name": "_commDevFund",
          "type": "address"
        },
        {
          "name": "_airdropFund",
          "type": "address"
        },
        {
          "name": "_commEngFund",
          "type": "address"
        },
        {
          "name": "_commFaucetFund",
          "type": "address"
        }
      ],
      "name": "finish",
      "outputs": [],
      "payable": false,
      "stateMutability": "nonpayable",
      "type": "function"
    },
    {
      "constant": true,
      "inputs": [],
      "name": "hasEnded",
      "outputs": [
        {
          "name": "",
          "type": "bool"
        }
      ],
      "payable": false,
      "stateMutability": "view",
      "type": "function"
    }
  ],
  "bytecode": "0x60606040526007805460a060020a60ff02199081169091556009805490911690556b06765c793fa10079d0000000600a556b033b2e3c9fd0803ce8000000600b556b02e87669c308736a04000000600c556b019d971e4fe8401e74000000600d556a084595161401484a000000600e8190556a108b2a2c28029094000000600f55601081905560115534156200009457600080fd5b60405160c080620035608339810160405280805191906020018051919060200180519190602001805191906020018051919060200180519150829050818787878742841015620000e357600080fd5b83831015620000f157600080fd5b60008211620000ff57600080fd5b600160a060020a03811615156200011557600080fd5b6200012d6401000000006200113d6200021c82021704565b60008054600160a060020a0319908116600160a060020a039384161782556001969096556002949094556004929092556003805490941691161790915581116200017657600080fd5b60065560078054600160a060020a03191633600160a060020a031617905560008111620001a257600080fd5b600354600160a060020a0316620001b862000244565b600160a060020a039091168152602001604051809103906000f0801515620001df57600080fd5b60098054600160a060020a031916600160a060020a0392909216919091179055600855808211156200021057600080fd5b50505050505062000266565b60006200022862000255565b604051809103906000f08015156200023f57600080fd5b905090565b60405161060c80620021b683390190565b604051610d9e80620027c283390190565b611f4080620002766000396000f300606060405260043610620001795763ffffffff60e060020a6000350416631df04d498114620003055780632c4e722e14620003415780633197cbb61462000369578063355274ea146200037f57806336b1ec4714620003955780634019388314620003ab5780634042b66f14620003c15780634bb278f314620003d7578063521eb27314620003ed57806360219c7b146200041f57806378e9792514620004355780637d3d6522146200044b578063863d220014620004755780638af74d4f146200048b5780638d4e408314620004a15780638da5cb5b14620004b75780639a999f6814620004cd578063a997f82f14620004e3578063abe8014a14620004fc578063b5545a3c1462000512578063c040e6b81462000528578063e83157421462000563578063ec8ac4d81462000579578063ecb70fb7146200058f578063f05e7d1914620005a5578063f2fde38b14620005bb578063fbfa77cf14620005dd578063fc0c546a14620005f3578063fde83a341462000609575b600062000192600454346200061f90919063ffffffff16565b9050600060095460a060020a900460ff166001811115620001af57fe5b148015620002185750600d546000548290600160a060020a03166318160ddd6040518163ffffffff1660e060020a028152600401602060405180830381600087803b1515620001fd57600080fd5b5af115156200020b57600080fd5b5050506040518051905001115b15620002bc57600160a060020a0333163480156108fc0290604051600060405180830381858888f1935050505015156200025157600080fd5b7fc0283f9c45b2118c7ec26e4f4bf06fc486f94a186fb38dc5dff372d9cb709d3760405160208082526010908201527f50726549434f204c696d697420486974000000000000000000000000000000006040808301919091526060909101905180910390a162000302565b620002c73362000659565b600060095460a060020a900460ff166001811115620002e257fe5b14156200030257601254620002fe903463ffffffff6200078916565b6012555b50005b34156200031157600080fd5b6200033f600160a060020a036004358116906024358116906044358116906064358116906084351662000799565b005b34156200034d57600080fd5b6200035762000ab8565b60405190815260200160405180910390f35b34156200037557600080fd5b6200035762000abe565b34156200038b57600080fd5b6200035762000ac4565b3415620003a157600080fd5b6200035762000aca565b3415620003b757600080fd5b6200035762000ad0565b3415620003cd57600080fd5b6200035762000ad6565b3415620003e357600080fd5b6200033f62000adc565b3415620003f957600080fd5b6200040362000b82565b604051600160a060020a03909116815260200160405180910390f35b34156200042b57600080fd5b6200035762000b91565b34156200044157600080fd5b6200035762000b97565b34156200045757600080fd5b6200046162000b9d565b604051901515815260200160405180910390f35b34156200048157600080fd5b6200035762000ba8565b34156200049757600080fd5b6200035762000bae565b3415620004ad57600080fd5b6200046162000bb4565b3415620004c357600080fd5b6200040362000bc4565b3415620004d957600080fd5b6200035762000bd3565b3415620004ef57600080fd5b6200033f60043562000bd9565b34156200050857600080fd5b6200035762000cb3565b34156200051e57600080fd5b6200033f62000cb9565b34156200053457600080fd5b6200053e62000d46565b604051808260018111156200054f57fe5b60ff16815260200191505060405180910390f35b34156200056f57600080fd5b6200035762000d56565b6200033f600160a060020a036004351662000659565b34156200059b57600080fd5b6200046162000d5c565b3415620005b157600080fd5b6200035762000d61565b3415620005c757600080fd5b6200033f600160a060020a036004351662000d67565b3415620005e957600080fd5b6200040362000e04565b3415620005ff57600080fd5b6200040362000e13565b34156200061557600080fd5b6200035762000e22565b60008083151562000634576000915062000652565b508282028284828115156200064557fe5b04146200064e57fe5b8091505b5092915050565b600080600160a060020a03831615156200067257600080fd5b6200067c62000e28565b15156200068857600080fd5b600454349250620006a190839063ffffffff6200061f16565b600554909150620006b9908363ffffffff6200078916565b600555600054600160a060020a03166340c10f19848360405160e060020a63ffffffff8516028152600160a060020a0390921660048301526024820152604401602060405180830381600087803b15156200071357600080fd5b5af115156200072157600080fd5b505050604051805190505082600160a060020a031633600160a060020a03167f623b3804fa71d67900d064613da8f94b9617215ee90799290593e1745087ad18848460405191825260208201526040908101905180910390a36200078462000e63565b505050565b6000828201838110156200064e57fe5b600754600090819033600160a060020a03908116911614620007ba57600080fd5b60075460a060020a900460ff1615620007d257600080fd5b600054600160a060020a03166318160ddd6040518163ffffffff1660e060020a028152600401602060405180830381600087803b15156200081257600080fd5b5af115156200082057600080fd5b5050506040518051600a54909350831090506200083c57600080fd5b81600c5403905060008111156200085657600f8054820190555b600054600b54600160a060020a03909116906340c10f1990899060405160e060020a63ffffffff8516028152600160a060020a0390921660048301526024820152604401602060405180830381600087803b1515620008b457600080fd5b5af11515620008c257600080fd5b50505060405180515050600054600e54600160a060020a03909116906340c10f1990889060405160e060020a63ffffffff8516028152600160a060020a0390921660048301526024820152604401602060405180830381600087803b15156200092a57600080fd5b5af115156200093857600080fd5b50505060405180515050600054600f54600160a060020a03909116906340c10f1990879060405160e060020a63ffffffff8516028152600160a060020a0390921660048301526024820152604401602060405180830381600087803b1515620009a057600080fd5b5af11515620009ae57600080fd5b50505060405180515050600054601054600160a060020a03909116906340c10f1990869060405160e060020a63ffffffff8516028152600160a060020a0390921660048301526024820152604401602060405180830381600087803b151562000a1657600080fd5b5af1151562000a2457600080fd5b50505060405180515050600054601154600160a060020a03909116906340c10f1990859060405160e060020a63ffffffff8516028152600160a060020a0390921660048301526024820152604401602060405180830381600087803b151562000a8c57600080fd5b5af1151562000a9a57600080fd5b505050604051805190505062000aaf62000adc565b50505050505050565b60045481565b60025481565b60065481565b60115481565b60085481565b60055481565b60075433600160a060020a0390811691161462000af857600080fd5b60075460a060020a900460ff161562000b1057600080fd5b62000b1a62000d5c565b151562000b2657600080fd5b62000b3062000fde565b7f6823b073d48d6e3a7d385eeb601452d680e74bb46afe3255a7d778f3a9b1768160405160405180910390a16007805474ff0000000000000000000000000000000000000000191660a060020a179055565b600354600160a060020a031681565b600c5481565b60015481565b600854600554101590565b600e5481565b600f5481565b60075460a060020a900460ff1681565b600754600160a060020a031681565b600d5481565b60075460009033600160a060020a0390811691161462000bf857600080fd5b81151562000c095750600062000c17565b816001141562000c17575060015b6009805482919074ff0000000000000000000000000000000000000000191660a060020a83600181111562000c4857fe5b0217905550600060095460a060020a900460ff16600181111562000c6857fe5b141562000c815762000c7b6005620010a1565b62000caf565b600160095460a060020a900460ff16600181111562000c9c57fe5b141562000caf5762000caf6002620010a1565b5050565b60125481565b60075460a060020a900460ff16151562000cd257600080fd5b62000cdc62000b9d565b1562000ce757600080fd5b600954600160a060020a031663fa89401a3360405160e060020a63ffffffff8416028152600160a060020a039091166004820152602401600060405180830381600087803b151562000d3857600080fd5b5af115156200078457600080fd5b60095460a060020a900460ff1681565b600a5481565b600190565b60105481565b60075433600160a060020a0390811691161462000d8357600080fd5b600160a060020a038116151562000d9957600080fd5b600754600160a060020a0380831691167f8be0079c531659141344cd1fd0a4f28419497f9722a3daafe3b4186f6b6457e060405160405180910390a36007805473ffffffffffffffffffffffffffffffffffffffff1916600160a060020a0392909216919091179055565b600954600160a060020a031681565b600054600160a060020a031681565b600b5481565b60008060065462000e45346005546200078990919063ffffffff16565b1115905062000e53620010a6565b801562000e5d5750805b91505090565b600060095460a060020a900460ff16600181111562000e7e57fe5b141562000f2557600354600160a060020a03163480156108fc0290604051600060405180830381858888f19350505050151562000eba57600080fd5b7f47af8c4076c54a76f613f82e4296a2c5e2167698d368157a82e62398393e345e6040516020808252601a908201527f666f7277617264696e672066756e647320746f2077616c6c65740000000000006040808301919091526060909101905180910390a162000fdc565b600160095460a060020a900460ff16600181111562000f4057fe5b141562000fdc577f47af8c4076c54a76f613f82e4296a2c5e2167698d368157a82e62398393e345e60405160208082526024908201527f666f7277617264696e672066756e647320746f20726566756e6461626c6520766040808301919091527f61756c740000000000000000000000000000000000000000000000000000000060608301526080909101905180910390a162000fdc620010d8565b565b62000fe862000b9d565b156200104557600954600160a060020a03166343d726d66040518163ffffffff1660e060020a028152600401600060405180830381600087803b15156200102e57600080fd5b5af115156200103c57600080fd5b50505062001097565b600954600160a060020a0316638c52dc416040518163ffffffff1660e060020a028152600401600060405180830381600087803b15156200108557600080fd5b5af115156200109357600080fd5b5050505b62000fdc62000fdc565b600455565b60008060006001544210158015620010c057506002544211155b915050341515818015620010d15750805b9250505090565b600954600160a060020a031663f340fa01343360405160e060020a63ffffffff8516028152600160a060020a0390911660048201526024016000604051808303818588803b15156200112957600080fd5b5af115156200113757600080fd5b50505050565b60006200114962001165565b604051809103906000f08015156200116057600080fd5b905090565b604051610d9e8062001177833901905600606060409081526003805460a060020a60ff02191690558051908101604052600b81527f4c6f63616c20546f6b656e0000000000000000000000000000000000000000006020820152600490805161005b9291602001906100c9565b5060408051908101604052600381527f4c4f540000000000000000000000000000000000000000000000000000000000602082015260059080516100a39291602001906100c9565b50601260065560038054600160a060020a03191633600160a060020a0316179055610164565b828054600181600116156101000203166002900490600052602060002090601f016020900481019282601f1061010a57805160ff1916838001178555610137565b82800160010185558215610137579182015b8281111561013757825182559160200191906001019061011c565b50610143929150610147565b5090565b61016191905b80821115610143576000815560010161014d565b90565b610c2b806101736000396000f3006060604052600436106100e55763ffffffff7c010000000000000000000000000000000000000000000000000000000060003504166305d2035b81146100ea57806306fdde0314610111578063095ea7b31461019b57806318160ddd146101bd57806323b872dd146101e2578063313ce5671461020a57806340c10f191461021d578063661884631461023f57806370a08231146102615780637d64bcb4146102805780638da5cb5b1461029357806395d89b41146102c2578063a9059cbb146102d5578063d73dd623146102f7578063dd62ed3e14610319578063f2fde38b1461033e575b600080fd5b34156100f557600080fd5b6100fd61035f565b604051901515815260200160405180910390f35b341561011c57600080fd5b610124610380565b60405160208082528190810183818151815260200191508051906020019080838360005b83811015610160578082015183820152602001610148565b50505050905090810190601f16801561018d5780820380516001836020036101000a031916815260200191505b509250505060405180910390f35b34156101a657600080fd5b6100fd600160a060020a036004351660243561041e565b34156101c857600080fd5b6101d061048a565b60405190815260200160405180910390f35b34156101ed57600080fd5b6100fd600160a060020a0360043581169060243516604435610490565b341561021557600080fd5b6101d0610612565b341561022857600080fd5b6100fd600160a060020a0360043516602435610618565b341561024a57600080fd5b6100fd600160a060020a0360043516602435610736565b341561026c57600080fd5b6101d0600160a060020a0360043516610830565b341561028b57600080fd5b6100fd61084b565b341561029e57600080fd5b6102a66108f8565b604051600160a060020a03909116815260200160405180910390f35b34156102cd57600080fd5b610124610907565b34156102e057600080fd5b6100fd600160a060020a0360043516602435610972565b341561030257600080fd5b6100fd600160a060020a0360043516602435610a6d565b341561032457600080fd5b6101d0600160a060020a0360043581169060243516610b11565b341561034957600080fd5b61035d600160a060020a0360043516610b3c565b005b60035474010000000000000000000000000000000000000000900460ff1681565b60048054600181600116156101000203166002900480601f0160208091040260200160405190810160405280929190818152602001828054600181600116156101000203166002900480156104165780601f106103eb57610100808354040283529160200191610416565b820191906000526020600020905b8154815290600101906020018083116103f957829003601f168201915b505050505081565b600160a060020a03338116600081815260026020908152604080832094871680845294909152808220859055909291907f8c5be1e5ebec7d5bd14f71427d1e84f3dd0314c0f7b2291e5b200ac8c7c3b9259085905190815260200160405180910390a350600192915050565b60005481565b6000600160a060020a03831615156104a757600080fd5b600160a060020a0384166000908152600160205260409020548211156104cc57600080fd5b600160a060020a03808516600090815260026020908152604080832033909416835292905220548211156104ff57600080fd5b600160a060020a038416600090815260016020526040902054610528908363ffffffff610bd716565b600160a060020a03808616600090815260016020526040808220939093559085168152205461055d908363ffffffff610be916565b600160a060020a038085166000908152600160209081526040808320949094558783168252600281528382203390931682529190915220546105a5908363ffffffff610bd716565b600160a060020a03808616600081815260026020908152604080832033861684529091529081902093909355908516917fddf252ad1be2c89b69c2b068fc378daa952ba7f163c4a11628f55a4df523b3ef9085905190815260200160405180910390a35060019392505050565b60065481565b60035460009033600160a060020a0390811691161461063657600080fd5b60035474010000000000000000000000000000000000000000900460ff161561065e57600080fd5b600054610671908363ffffffff610be916565b6000908155600160a060020a03841681526001602052604090205461069c908363ffffffff610be916565b600160a060020a0384166000818152600160205260409081902092909255907f0f6798a560793a54c3bcfe86a93cde1e73087d944c0ea20544137d41213968859084905190815260200160405180910390a2600160a060020a03831660007fddf252ad1be2c89b69c2b068fc378daa952ba7f163c4a11628f55a4df523b3ef8460405190815260200160405180910390a350600192915050565b600160a060020a0333811660009081526002602090815260408083209386168352929052908120548083111561079357600160a060020a0333811660009081526002602090815260408083209388168352929052908120556107ca565b6107a3818463ffffffff610bd716565b600160a060020a033381166000908152600260209081526040808320938916835292905220555b600160a060020a0333811660008181526002602090815260408083209489168084529490915290819020547f8c5be1e5ebec7d5bd14f71427d1e84f3dd0314c0f7b2291e5b200ac8c7c3b925915190815260200160405180910390a35060019392505050565b600160a060020a031660009081526001602052604090205490565b60035460009033600160a060020a0390811691161461086957600080fd5b60035474010000000000000000000000000000000000000000900460ff161561089157600080fd5b6003805474ff00000000000000000000000000000000000000001916740100000000000000000000000000000000000000001790557fae5184fba832cb2b1f702aca6117b8d265eaf03ad33eb133f19dde0f5920fa0860405160405180910390a150600190565b600354600160a060020a031681565b60058054600181600116156101000203166002900480601f0160208091040260200160405190810160405280929190818152602001828054600181600116156101000203166002900480156104165780601f106103eb57610100808354040283529160200191610416565b6000600160a060020a038316151561098957600080fd5b600160a060020a0333166000908152600160205260409020548211156109ae57600080fd5b600160a060020a0333166000908152600160205260409020546109d7908363ffffffff610bd716565b600160a060020a033381166000908152600160205260408082209390935590851681522054610a0c908363ffffffff610be916565b600160a060020a0380851660008181526001602052604090819020939093559133909116907fddf252ad1be2c89b69c2b068fc378daa952ba7f163c4a11628f55a4df523b3ef9085905190815260200160405180910390a350600192915050565b600160a060020a033381166000908152600260209081526040808320938616835292905290812054610aa5908363ffffffff610be916565b600160a060020a0333811660008181526002602090815260408083209489168084529490915290819020849055919290917f8c5be1e5ebec7d5bd14f71427d1e84f3dd0314c0f7b2291e5b200ac8c7c3b92591905190815260200160405180910390a350600192915050565b600160a060020a03918216600090815260026020908152604080832093909416825291909152205490565b60035433600160a060020a03908116911614610b5757600080fd5b600160a060020a0381161515610b6c57600080fd5b600354600160a060020a0380831691167f8be0079c531659141344cd1fd0a4f28419497f9722a3daafe3b4186f6b6457e060405160405180910390a36003805473ffffffffffffffffffffffffffffffffffffffff1916600160a060020a0392909216919091179055565b600082821115610be357fe5b50900390565b600082820183811015610bf857fe5b93925050505600a165627a7a72305820b703332aa3538b15f5c9a0e7346945d973a1c33a299f7f52efce4eb018ff1abb0029a165627a7a72305820f3b0d87489b1581fa59349424c23dc8d0d791e12ed453aed322e41cd5956b26100296060604052341561000f57600080fd5b60405160208061060c8339810160405280805160008054600160a060020a03191633600160a060020a039081169190911790915590925082161515905061005557600080fd5b60028054600160a060020a031916600160a060020a03929092169190911760a060020a60ff021916905561057e8061008e6000396000f3006060604052600436106100985763ffffffff7c010000000000000000000000000000000000000000000000000000000060003504166343d726d6811461009d578063521eb273146100b25780638c52dc41146100e15780638da5cb5b146100f4578063c19d93fb14610107578063cb13cddb1461013e578063f2fde38b1461016f578063f340fa011461018e578063fa89401a146101a2575b600080fd5b34156100a857600080fd5b6100b06101c1565b005b34156100bd57600080fd5b6100c561029c565b604051600160a060020a03909116815260200160405180910390f35b34156100ec57600080fd5b6100b06102ab565b34156100ff57600080fd5b6100c561033c565b341561011257600080fd5b61011a61034b565b6040518082600281111561012a57fe5b60ff16815260200191505060405180910390f35b341561014957600080fd5b61015d600160a060020a036004351661035b565b60405190815260200160405180910390f35b341561017a57600080fd5b6100b0600160a060020a036004351661036d565b6100b0600160a060020a0360043516610408565b34156101ad57600080fd5b6100b0600160a060020a036004351661048c565b60005433600160a060020a039081169116146101dc57600080fd5b60006002805460a060020a900460ff16908111156101f657fe5b1461020057600080fd5b6002805474ff00000000000000000000000000000000000000001916740200000000000000000000000000000000000000001790557f1cdde67b72a90f19919ac732a437ac2f7a10fc128d28c2a6e525d89ce5cd9d3a60405160405180910390a1600254600160a060020a039081169030163180156108fc0290604051600060405180830381858888f19350505050151561029a57600080fd5b565b600254600160a060020a031681565b60005433600160a060020a039081169116146102c657600080fd5b60006002805460a060020a900460ff16908111156102e057fe5b146102ea57600080fd5b6002805474ff0000000000000000000000000000000000000000191660a060020a1790557f599d8e5a83cffb867d051598c4d70e805d59802d8081c1c7d6dffc5b6aca2b8960405160405180910390a1565b600054600160a060020a031681565b60025460a060020a900460ff1681565b60016020526000908152604090205481565b60005433600160a060020a0390811691161461038857600080fd5b600160a060020a038116151561039d57600080fd5b600054600160a060020a0380831691167f8be0079c531659141344cd1fd0a4f28419497f9722a3daafe3b4186f6b6457e060405160405180910390a36000805473ffffffffffffffffffffffffffffffffffffffff1916600160a060020a0392909216919091179055565b60005433600160a060020a0390811691161461042357600080fd5b60006002805460a060020a900460ff169081111561043d57fe5b1461044757600080fd5b600160a060020a038116600090815260016020526040902054610470903463ffffffff61053c16565b600160a060020a03909116600090815260016020526040902055565b600060016002805460a060020a900460ff16908111156104a857fe5b146104b257600080fd5b50600160a060020a038116600081815260016020526040808220805492905590919082156108fc0290839051600060405180830381858888f1935050505015156104fb57600080fd5b81600160a060020a03167fd7dee2702d63ad89917b6a4da9981c90c4d24f8c2bdfd64c604ecae57d8d06518260405190815260200160405180910390a25050565b60008282018381101561054b57fe5b93925050505600a165627a7a72305820fc160cfedd92e9e7871c89a32d98758d543c1c57a7c490dd2e9d9981b518bccd0029606060409081526003805460a060020a60ff02191690558051908101604052600b81527f4c6f63616c20546f6b656e0000000000000000000000000000000000000000006020820152600490805161005b9291602001906100c9565b5060408051908101604052600381527f4c4f540000000000000000000000000000000000000000000000000000000000602082015260059080516100a39291602001906100c9565b50601260065560038054600160a060020a03191633600160a060020a0316179055610164565b828054600181600116156101000203166002900490600052602060002090601f016020900481019282601f1061010a57805160ff1916838001178555610137565b82800160010185558215610137579182015b8281111561013757825182559160200191906001019061011c565b50610143929150610147565b5090565b61016191905b80821115610143576000815560010161014d565b90565b610c2b806101736000396000f3006060604052600436106100e55763ffffffff7c010000000000000000000000000000000000000000000000000000000060003504166305d2035b81146100ea57806306fdde0314610111578063095ea7b31461019b57806318160ddd146101bd57806323b872dd146101e2578063313ce5671461020a57806340c10f191461021d578063661884631461023f57806370a08231146102615780637d64bcb4146102805780638da5cb5b1461029357806395d89b41146102c2578063a9059cbb146102d5578063d73dd623146102f7578063dd62ed3e14610319578063f2fde38b1461033e575b600080fd5b34156100f557600080fd5b6100fd61035f565b604051901515815260200160405180910390f35b341561011c57600080fd5b610124610380565b60405160208082528190810183818151815260200191508051906020019080838360005b83811015610160578082015183820152602001610148565b50505050905090810190601f16801561018d5780820380516001836020036101000a031916815260200191505b509250505060405180910390f35b34156101a657600080fd5b6100fd600160a060020a036004351660243561041e565b34156101c857600080fd5b6101d061048a565b60405190815260200160405180910390f35b34156101ed57600080fd5b6100fd600160a060020a0360043581169060243516604435610490565b341561021557600080fd5b6101d0610612565b341561022857600080fd5b6100fd600160a060020a0360043516602435610618565b341561024a57600080fd5b6100fd600160a060020a0360043516602435610736565b341561026c57600080fd5b6101d0600160a060020a0360043516610830565b341561028b57600080fd5b6100fd61084b565b341561029e57600080fd5b6102a66108f8565b604051600160a060020a03909116815260200160405180910390f35b34156102cd57600080fd5b610124610907565b34156102e057600080fd5b6100fd600160a060020a0360043516602435610972565b341561030257600080fd5b6100fd600160a060020a0360043516602435610a6d565b341561032457600080fd5b6101d0600160a060020a0360043581169060243516610b11565b341561034957600080fd5b61035d600160a060020a0360043516610b3c565b005b60035474010000000000000000000000000000000000000000900460ff1681565b60048054600181600116156101000203166002900480601f0160208091040260200160405190810160405280929190818152602001828054600181600116156101000203166002900480156104165780601f106103eb57610100808354040283529160200191610416565b820191906000526020600020905b8154815290600101906020018083116103f957829003601f168201915b505050505081565b600160a060020a03338116600081815260026020908152604080832094871680845294909152808220859055909291907f8c5be1e5ebec7d5bd14f71427d1e84f3dd0314c0f7b2291e5b200ac8c7c3b9259085905190815260200160405180910390a350600192915050565b60005481565b6000600160a060020a03831615156104a757600080fd5b600160a060020a0384166000908152600160205260409020548211156104cc57600080fd5b600160a060020a03808516600090815260026020908152604080832033909416835292905220548211156104ff57600080fd5b600160a060020a038416600090815260016020526040902054610528908363ffffffff610bd716565b600160a060020a03808616600090815260016020526040808220939093559085168152205461055d908363ffffffff610be916565b600160a060020a038085166000908152600160209081526040808320949094558783168252600281528382203390931682529190915220546105a5908363ffffffff610bd716565b600160a060020a03808616600081815260026020908152604080832033861684529091529081902093909355908516917fddf252ad1be2c89b69c2b068fc378daa952ba7f163c4a11628f55a4df523b3ef9085905190815260200160405180910390a35060019392505050565b60065481565b60035460009033600160a060020a0390811691161461063657600080fd5b60035474010000000000000000000000000000000000000000900460ff161561065e57600080fd5b600054610671908363ffffffff610be916565b6000908155600160a060020a03841681526001602052604090205461069c908363ffffffff610be916565b600160a060020a0384166000818152600160205260409081902092909255907f0f6798a560793a54c3bcfe86a93cde1e73087d944c0ea20544137d41213968859084905190815260200160405180910390a2600160a060020a03831660007fddf252ad1be2c89b69c2b068fc378daa952ba7f163c4a11628f55a4df523b3ef8460405190815260200160405180910390a350600192915050565b600160a060020a0333811660009081526002602090815260408083209386168352929052908120548083111561079357600160a060020a0333811660009081526002602090815260408083209388168352929052908120556107ca565b6107a3818463ffffffff610bd716565b600160a060020a033381166000908152600260209081526040808320938916835292905220555b600160a060020a0333811660008181526002602090815260408083209489168084529490915290819020547f8c5be1e5ebec7d5bd14f71427d1e84f3dd0314c0f7b2291e5b200ac8c7c3b925915190815260200160405180910390a35060019392505050565b600160a060020a031660009081526001602052604090205490565b60035460009033600160a060020a0390811691161461086957600080fd5b60035474010000000000000000000000000000000000000000900460ff161561089157600080fd5b6003805474ff00000000000000000000000000000000000000001916740100000000000000000000000000000000000000001790557fae5184fba832cb2b1f702aca6117b8d265eaf03ad33eb133f19dde0f5920fa0860405160405180910390a150600190565b600354600160a060020a031681565b60058054600181600116156101000203166002900480601f0160208091040260200160405190810160405280929190818152602001828054600181600116156101000203166002900480156104165780601f106103eb57610100808354040283529160200191610416565b6000600160a060020a038316151561098957600080fd5b600160a060020a0333166000908152600160205260409020548211156109ae57600080fd5b600160a060020a0333166000908152600160205260409020546109d7908363ffffffff610bd716565b600160a060020a033381166000908152600160205260408082209390935590851681522054610a0c908363ffffffff610be916565b600160a060020a0380851660008181526001602052604090819020939093559133909116907fddf252ad1be2c89b69c2b068fc378daa952ba7f163c4a11628f55a4df523b3ef9085905190815260200160405180910390a350600192915050565b600160a060020a033381166000908152600260209081526040808320938616835292905290812054610aa5908363ffffffff610be916565b600160a060020a0333811660008181526002602090815260408083209489168084529490915290819020849055919290917f8c5be1e5ebec7d5bd14f71427d1e84f3dd0314c0f7b2291e5b200ac8c7c3b92591905190815260200160405180910390a350600192915050565b600160a060020a03918216600090815260026020908152604080832093909416825291909152205490565b60035433600160a060020a03908116911614610b5757600080fd5b600160a060020a0381161515610b6c57600080fd5b600354600160a060020a0380831691167f8be0079c531659141344cd1fd0a4f28419497f9722a3daafe3b4186f6b6457e060405160405180910390a36003805473ffffffffffffffffffffffffffffffffffffffff1916600160a060020a0392909216919091179055565b600082821115610be357fe5b50900390565b600082820183811015610bf857fe5b93925050505600a165627a7a72305820b703332aa3538b15f5c9a0e7346945d973a1c33a299f7f52efce4eb018ff1abb0029",
  "source": "pragma solidity ^0.4.21;\n\nimport './LocalToken.sol';\nimport 'zeppelin-solidity/contracts/crowdsale/CappedCrowdsale.sol';\nimport 'zeppelin-solidity/contracts/crowdsale/RefundableCrowdsale.sol';\n\ncontract LocalTokenCrowdsale is CappedCrowdsale, RefundableCrowdsale {\n\n  // ICO\n  // ============\n  enum CrowdsaleStage { PreICO, ICO }\n  CrowdsaleStage public stage = CrowdsaleStage.PreICO; // By default it's Pre Sale\n  // =============\n\n  // Token Distribution\n  // =============================\n  uint256 public maxTokens = 2 * (10 ** 9) * (10 ** 18); \t\t\t\t\t// Total: 2 billion Local Tokens\n  uint256 public tokensForTeam = (10 ** 9) * (10 ** 18);\t\t\t\t\t// 1 billion tokens\n  uint256 public totalTokensForSale = 900 * (10 ** 6) * (10 ** 18); \t\t// 900 million tokens to be sold in crowdsale\n  uint256 public totalTokensForSalePreICO = 500 * (10 ** 6) * (10 ** 18); \t// 500 million tokens out of 900 million\n  uint256 public tokensForCommDev = 10 * (10 ** 6) * (10 ** 18); \t\t\t// 10 million tokens: community development\n  uint256 public tokensForAirdrop = 20 * (10 ** 6) * (10 ** 18);      // 20 million tokens: community engagement\n  uint256 public tokensForCommEng = 10 * (10 ** 6) * (10 ** 18); \t\t\t// 10 million tokens: community engagement\n  uint256 public tokensForCommFaucet = 10 * (10 ** 6) * (10 ** 18); \t\t// 10 million tokens: community faucet\n  // ==============================\n\n  // Amount raised in PreICO\n  // ==================\n  uint256 public totalWeiRaisedDuringPreICO;\n  // ===================\n\n\n  // Events\n  event EthTransferred(string text);\n  event EthRefunded(string text);\n\n\n  // Constructor\n  // ============\n  function LocalTokenCrowdsale(uint256 _startTime, uint256 _endTime, uint256 _rate, address _wallet, uint256 _goal, uint256 _cap) CappedCrowdsale(_cap) FinalizableCrowdsale() RefundableCrowdsale(_goal) Crowdsale(_startTime, _endTime, _rate, _wallet) public {\n      require(_goal <= _cap);\n  }\n  // =============\n\n  // Token Deployment\n  // =================\n  function createTokenContract() internal returns (MintableToken) {\n    return new LocalToken(); // Deploy ERC20 token. Automatically called when crowdsale contract is deployed\n  }\n  // ==================\n\n  // Crowdsale Stage Management\n  // =========================================================\n\n  // Change Crowdsale Stage. Available Options: PreICO, ICO\n  function setCrowdsaleStage(uint value) public onlyOwner {\n\n      CrowdsaleStage _stage;\n\n      if (uint(CrowdsaleStage.PreICO) == value) {\n        _stage = CrowdsaleStage.PreICO;\n      } else if (uint(CrowdsaleStage.ICO) == value) {\n        _stage = CrowdsaleStage.ICO;\n      }\n\n      stage = _stage;\n\n      if (stage == CrowdsaleStage.PreICO) {\n        setCurrentRate(5);\t// TODO: set how many LOTs per 1 ETH\n      } else if (stage == CrowdsaleStage.ICO) {\n        setCurrentRate(2);\t// TODO: set how many LOTs per 1 ETH\n      }\n  }\n\n  // Change the current rate\n  function setCurrentRate(uint256 _rate) private {\n      rate = _rate;\n  }\n\n  \n\n  // Token Purchase\n  // =========================\n  function () external payable {\n      uint256 tokensThatWillBeMintedAfterPurchase = msg.value.mul(rate);\n      if ((stage == CrowdsaleStage.PreICO) && (token.totalSupply() + tokensThatWillBeMintedAfterPurchase > totalTokensForSalePreICO)) {\n        msg.sender.transfer(msg.value); // Refund them\n        EthRefunded(\"PreICO Limit Hit\");\n        return;\n      }\n\n      buyTokens(msg.sender);\n\n      if (stage == CrowdsaleStage.PreICO) {\n          totalWeiRaisedDuringPreICO = totalWeiRaisedDuringPreICO.add(msg.value);\n      }\n  }\n\n  function forwardFunds() internal {\n      if (stage == CrowdsaleStage.PreICO) {\n          wallet.transfer(msg.value);\n          EthTransferred(\"forwarding funds to wallet\");\n      } else if (stage == CrowdsaleStage.ICO) {\n          EthTransferred(\"forwarding funds to refundable vault\");\n          super.forwardFunds();\n      }\n  }\n  // ===========================\n\n  // Finish: Mint Extra Tokens as needed before finalizing the Crowdsale.\n  // ====================================================================\n\n  function finish(address _teamFund, address _commDevFund, address _airdropFund, address _commEngFund, address _commFaucetFund) public onlyOwner {\n\n      require(!isFinalized);\n      uint256 alreadyMinted = token.totalSupply();\n      require(alreadyMinted < maxTokens);\n\n      uint256 unsoldTokens = totalTokensForSale - alreadyMinted;\n      if (unsoldTokens > 0) {\n        tokensForAirdrop = tokensForAirdrop + unsoldTokens;\n      }\n\n      token.mint(_teamFund, tokensForTeam);\n      token.mint(_commDevFund, tokensForCommDev);\n      token.mint(_airdropFund, tokensForAirdrop);\n      token.mint(_commEngFund, tokensForCommEng);\n      token.mint(_commFaucetFund, tokensForCommFaucet);\n      finalize();\n  }\n  // ===============================\n\n  // REMOVE THIS FUNCTION ONCE YOU ARE READY FOR PRODUCTION\n  // USEFUL FOR TESTING `finish()` FUNCTION\n  function hasEnded() public view returns (bool) {\n    return true;\n  }\n}",
  "sourcePath": "/home/ahia/Documents/ivy/LOT/contracts/LocalTokenCrowdsale.sol",
  "compiler": {
    "name": "solc",
    "version": "0.4.21+commit.dfe3193c.Emscripten.clang"
  },
  "schemaVersion": "2.0.0",
  "updatedAt": "2018-07-09T01:58:56.061Z"
}